:10400000007F002071F7000019F600006DF7000036
:104010006DF700006DF700006DF700006DF7000010
:104020000000000000000000000000006DF700002C
:104030006DF70000000000006DF700006DF7000054
:104040000000000000000000000000000000000070
:104050000000000000000000000000000000000060
:104060000000000000000000000000000000000050
:104070000000000000000000000000000000000040
:104080000000000000000000000000000000000030
:104090000000000000000000000000000000000020
:1040A0000000000000000000000000000000000010
:1040B0000000000000000000000000000000000000
:1040C00010B5054C237833B9044B13B10448AFF352
:1040D00000800123237010BDB00300200000000009
:1040E000D89F010008B5034B1BB103490348AFF348
:1040F000008008BD00000000B4030020D89F01002C
:1041000082B08DF805108DF806208DF8073072B654
:1041100000237F4A8DF803309DF80330072B4BD8DE
:10412000037832F8333019120431DBB2183350F807
:10413000211030F813304B819DF806301B061DD43A
:10414000037832F8333019120431DBB2183350F8E7
:10415000211030F813300B819DF806305B00DBB284
:104160008DF806309DF804305B088DF804309DF81A
:1041700003300133DBB28DF80330CDE700BF00BF61
:1041800000BF00BF00BF9DF806305B00DBB28DF8BA
:1041900006309DF804305B00DBB28DF80430037804
:1041A00032F8333019120431DBB2183350F82110D1
:1041B00030F813300B81DAE70023554A8DF80330CD
:1041C0009DF80330072B4BD8037832F8333019129F
:1041D0000431DBB2183350F8211030F813304B8122
:1041E0009DF8053019061DD4037832F833301912C2
:1041F0000431DBB2183350F8211030F813300B8142
:104200009DF805305B00DBB28DF805309DF8043079
:104210005B088DF804309DF803300133DBB28DF874
:104220000330CDE700BF00BF00BF00BF00BF9DF857
:1042300005305B00DBB28DF805309DF804305B0083
:10424000DBB28DF80430037832F8333019120431C0
:10425000DBB2183350F8211030F813300B81DAE755
:1042600000232B4A8DF803309DF80330072B4BD8E1
:10427000037832F8333019120431DBB2183350F8B6
:10428000211030F813304B819DF807301B061DD4E8
:10429000037832F8333019120431DBB2183350F896
:1042A000211030F813300B819DF807305B00DBB232
:1042B0008DF807309DF804305B088DF804309DF8C8
:1042C00003300133DBB28DF80330CDE700BF00BF10
:1042D00000BF00BF00BF9DF807305B00DBB28DF868
:1042E00007309DF804305B00DBB28DF804300378B2
:1042F00032F8333019120431DBB2183350F8211080
:1043000030F813300B81DAE762B602B0704700BFB5
:104310009C91010070B54668017B0546F3B2C6F377
:104320000722C6F30746FF244B434A43B3FBF4F38B
:10433000B2FBF4F27143DBB2B1FBF4F1D2B2C9B219
:10434000FFF7DEFEA868697BC3B2C0F30722C0F3A3
:1043500007404B434A43B3FBF4F3B2FBF4F241434F
:10436000DBB22846B1FBF4F1D2B2C9B2FFF7C8FE06
:104370004FF4FA70BDE870400EF0D0BA074B1A68DF
:10438000904230B508D0064A186000240025C2E9E2
:104390000045044AC2E9004530BD00BF300400209A
:1043A00028040020D003002008B50A4601780348FD
:1043B00001F0F0FBB0FA80F0400908BD6013002066
:1043C0002DE9F0474848DFF834A1DFF8348188B0A0
:1043D0008DED023B8DED042B8DED061B8DED000B5D
:1043E00003F073FA0A23B0FBF3F080B210F0B2FDD1
:1043F0009DED000B02460B4651EC100B10F05CFCDF
:1044000004460D4602460B46DAE9000110F054FC62
:10441000D8E90023CDE900012046294610F04EFCE2
:104420009DED061B06460F4653EC112BC8E90067AD
:104430002046294610F0F8FD9DED042B804653ECF4
:10444000122B89463046394610F0EEFD02460B46E7
:104450004046494610F032FC9DED023B064653ECC7
:10446000132B0F46DDE9000110F0DEFD02460B467E
:104470003046394610F022FC0022002306460F4643
:1044800011F062F80022B0B1184B3046394611F0F5
:104490005BF828BB32463B460020154910F00CFC67
:1044A00011F09AF881B21348FFF77EFFCAE9004580
:1044B00008B0BDE8F087104B3046394611F026F8B9
:1044C0000028E7D0324607F100433046394610F065
:1044D000D5FE0022054B10F0A7FD06460F46D9E792
:1044E00032463B46F1E700BFA408002000804A4066
:1044F000008056407004002000804AC0280400203C
:10450000D00300202DE9F0474748DFF830A1DFF85D
:10451000308188B08DED023B8DED042B8DED061BB7
:104520008DED000B03F0D1F90A23B0FBF3F080B25C
:1045300010F010FD9DED000B53EC102B10F0BCFBA8
:1045400004460D4602460B46DAE9000110F0B4FBC2
:10455000D8E90023CDE900012046294610F0AEFB42
:104560009DED061B06460F4653EC112BC8E900676C
:104570002046294610F058FD9DED042B804653EC53
:10458000122B89463046394610F04EFD02460B4646
:104590004046494610F092FB9DED023B064653EC27
:1045A000132B0F46DDE9000110F03EFD02460B46DD
:1045B0003046394610F082FB0022002306460F46A3
:1045C00010F0C2FF0022B0B1184B3046394610F04F
:1045D000BBFF28BB32463B460020154910F06CFB60
:1045E00010F0FAFF81B21348FFF7DEFECAE900457A
:1045F00008B0BDE8F087104B3046394610F086FF12
:104600000028E7D0324607F100433046394610F023
:1046100035FE0022054B10F007FD06460F46D9E790
:1046200032463B46F1E700BFA809002000804A401F
:10463000008056407004002000804AC028040020FA
:10464000D00300202DE9F0474748DFF834A1DFF818
:10465000348188B08DED022B8DED041B8DED060BA2
:1046600003F033F90446414803F02FF90A23B4FB61
:10467000F3F4B0FBF3F0A4B280B2201A10F06AFC9D
:1046800004460D4602460B46DAE9000110F014FB21
:10469000D8E90023CDE900012046294610F00EFBA1
:1046A0009DED060B06460F4653EC102BC8E900673C
:1046B0002046294610F0B8FC9DED041B804653ECC3
:1046C000112B89463046394610F0AEFC02460B46A7
:1046D0004046494610F0F2FA9DED022B064653EC97
:1046E000122B0F46DDE9000110F09EFC02460B463E
:1046F0003046394610F0E2FA0022002306460F4603
:1047000010F022FF0022B0B1194B3046394610F0AC
:104710001BFF28BB32463B460020164910F0CCFA5E
:1047200010F05AFF81B21448FFF73EFECAE9004577
:1047300008B0BDE8F087114B3046394610F0E6FE70
:104740000028E7D0324607F100433046394610F0E2
:1047500095FD0022064B10F067FC06460F46D9E790
:1047600032463B46F1E700BFA8090020A40800201C
:1047700000804A40008056407004002000804AC0FB
:1047800028040020D003002038B5194C194D1A48D0
:104790004FF416510CF046FC204600F093F9617876
:1047A0000122284601F0FCF8B4230022217D28468E
:1047B00001F052F9012104F5896003F0F3F804F1E6
:1047C0007005012104F24C5003F0ECF8284601F08A
:1047D000C5FC2846012102F06FFB4FF00113C4F81D
:1047E00084304FF4E1310548BDE838400CF01ABC84
:1047F0005C0400206013002048220020F4260020E2
:104800002DE9F04F8BB00646884615460EF0CEF8DF
:10481000404C07460EF0CAF8C01BA84204D22046FE
:104820000CF041FC0128F5DD3A480CF03CFC012875
:1048300062DD38480CF098FCAA284FD13548354F36
:104840000CF092FC04460EF0B1F8E4B282464FEA56
:1048500044090EF0ABF8A0EB0A00A84204D2384697
:104860000CF021FC8145F4DA2A480CF01CFC81454F
:104870003DDA84F0AA05DFF89CB0EDB24FF0000AF3
:104880005FFA8AF7B9450AF1010A09DD58460CF0CA
:104890006BFC0AAB1F44C0B207F8280C4540EFE799
:1048A0001C480CF061FC85421CD11A4D28460CF0C6
:1048B000FAFB18B128460CF057FCF7E7C3B2A34245
:1048C0000AD20DEB40035A781DF8103003EB022397
:1048D00048F820300130F1E70123337020460BB057
:1048E000BDE8F08F012333706FF00204F6E7012377
:1048F00033706FF00104F1E733783BB9064811F0EB
:10490000C3FF0549024603480DF004FA4FF0FF3497
:10491000E4E700BFF4260020A087010038B5174C5B
:104920001748C8222146FFF76BFF002821DD2368C6
:1049300028222146CBB91348134D11F091F92B6869
:10494000616899420ED00F494A68934207D10F4AD5
:10495000506883420BD189689368994207D9022035
:10496000FFF70CFD63682B6038BD0848E4E70120C1
:10497000F6E70020BDE83840FFF700BDD80300206F
:104980005413002034040020000000200004002004
:1049900007B55A213E483F4D3F4EFFF705FD2C46D7
:1049A00002AA002302F8013D297E304601F092F967
:1049B0009DF80730002BF3D014226978364801F0B7
:1049C000B7F89FED279B9FED288B9FED29AB334BCD
:1049D0001B68012B11D0022B28D0322323623048D0
:1049E000FFF798FCB0EE481AF0EE681A9FED222B04
:1049F0009FED230BFFF726FE15E04FF448132362CB
:104A00002748FFF787FCB0EE493AF0EE693AB0EE7E
:104A1000482AF0EE682AB0EE4A1AF0EE6A1A9FEDC4
:104A20001A0BFFF76FFDFFF779FFD0E74FF44853FC
:104A300023621B48FFF76EFCB0EE493AF0EE693A8C
:104A4000B0EE482AF0EE682AB0EE4A1AF0EE6A1A82
:104A50009FED0D0BFFF7B4FCE5E700BFAFF300805F
:104A600000000000000018400000000000000000EE
:104A700000000000000000400000000000000840AE
:104A8000333333333333D33F00000000000044405E
:104A9000700400205C04002060130020300400201B
:104AA00078040020F8B50C460E1D0D46471A04F098
:104AB0008FFDE91904F0B4FD05F8010BB542F6D1FC
:104AC0002046F8BD2DE9F0474FF47A710446A2B0B4
:104AD000CB4801F048F9CB4BE3622033236320330A
:104AE00063632033A3632033E363203323642033E1
:104AF000636420330746A36404F11C0504F14C02EF
:104B00000023012000FA03F10133102B22F8021BCD
:104B1000F8D14FF6FF7307200121238520770DF090
:104B200031FE227FB84B33F832301A1204EB820286
:104B3000DBB204EB4303D26AB3F84C301381002696
:104B400028462662FFF7E6FB28466662FFF7E2FB8F
:104B5000062384F86D3007A93220FFF7A3FF08A9C8
:104B60003620FFF79FFF09A93A20FFF79BFF0AA90C
:104B70003E20FFF797FF0BA94220FFF793FF0CA9F8
:104B80004620FFF78FFF07A99D489D4D01F057F87C
:104B9000642300226178284600F02AFF617881466C
:104BA000284601F026F8002261788046284600F069
:104BB0008DFF012206466178284600F0F1FEB9F12A
:104BC000000FE5D1B8F1000FE2D1002EE0D10028AE
:104BD000DED18B4DA17864230022284600F008FF27
:104BE000A1788146284601F004F80022A178804689
:104BF000284600F06BFF01220646A178284600F007
:104C0000CFFEB9F1000FE5D1B8F1000FE2D1002ECF
:104C1000E0D10028DED17A4DE178642300222846D5
:104C200000F0E6FEE1788146284600F0E2FF00222F
:104C3000E1788046284600F049FF01220646E178E7
:104C4000284600F0ADFEB9F1000FE5D1B8F1000F34
:104C5000E2D1002EE0D10028DED1694D2179642314
:104C60000022284600F0C4FE21798246284600F042
:104C7000C0FF002221798146284600F027FF01224B
:104C800080462179284600F08BFE0646BAF1000FD7
:104C9000E4D1B9F1000FE1D1B8F1000FDED1002865
:104CA000DCD10246B423217D554800F0D5FEB42363
:104CB0003246617D524800F0CFFEB4233246A17DDA
:104CC0004F4800F0C9FEB4233246E17D4C4800F065
:104CD000C3FE4E4B4E4ACDE901324FF0FF330093F5
:104CE00020224C4B802107A801F0F2F8089B636753
:104CF000BDF82430A4F87830BDF82630A4F87A3016
:104D0000BDF82830A4F87C30BDF82A30A4F87E30F5
:104D1000BDF82C30A4F88030BDF82E30A4F88230D5
:104D2000BDF83030A4F88430BDF83230A4F88630B5
:104D30009DF8343084F888309DF8353084F8893017
:104D40009DF8363084F88A309DF8373084F88B30FF
:104D50009DF8383084F88C300F9BC4F89030109B4D
:104D6000C4F89430119BC4F89830129BC4F89C305E
:104D70009DF84C3084F8A0309DF84D3084F8A13077
:104D80009DF84E3084F8A2309DF84F3084F8A3305F
:104D90009DF8503084F8A4309DF8513084F8A53047
:104DA0009DF8523084F8A6309DF8533084F8A7302F
:104DB000159BC4F8A830169BC4F8AC30179BC4F8F8
:104DC000B030189BC4F8B430199BC4F8B8301A9BA3
:104DD000C4F8BC301B9BC4F8C0301C9BC4F8C43062
:104DE0001D9BC4F8C8301E9B2098BDF884109DF808
:104DF0008620C4F8CC309DF87C3084F8D0300BE0AD
:104E000060130020000004409C910100801A0600FD
:104E1000A086010004180020C4F8D400A4F8D8101B
:104E200084F8DA2007A801F0AFF804F17005012337
:104E30003D2202210093284601F09EF94FF0011314
:104E4000C4F88430284601F089F9284601F00EFCA8
:104E500005230093CDE901660C2304220B2104F6FF
:104E60006C6002F05DF947B3624BC4F880300221F8
:104E7000284602F021F8604928460CF075FF2846C4
:104E800001F0F4FB032564224FF42F7194F86D00B8
:104E90000CF0CAFB64200DF045FD94F86D000CF099
:104EA0000BFC013D64200DF03DFD15F0FF05EAD13E
:104EB00040F6B8300DF036FDE4E7C8200DF032FDC5
:104EC0004E4904A80CF0D4FF04A94D4800F066FF39
:104ED000002840F088802E2104A80DF03BF85FFAEE
:104EE00080F843463A4604A907A80DF037F807A80A
:104EF0000DF054F8064607A80CF06FFF069B08F16A
:104F0000010204A907A80DF029F807A80DF046F83A
:104F1000F6B207A80CF061FF052E64D803266422C0
:104F200040F2262194F86D000CF07EFB3C200DF041
:104F3000F9FC94F86D000CF0BFFB013E3C200DF035
:104F4000F1FC16F0FF06EAD10DF030FD07462846C9
:104F500001F004F90121284601F0AEFFDFF8A0902E
:104F6000DFF8B480DFF8B4A00126002307AA617E31
:104F70008DF81C30484600F0ADFE9DF81C3063BB38
:104F80000DF014FD40F6B733C01B984204D90DF064
:104F90000DFD86F001060746284601F0DFF8C4F84B
:104FA00080808EB1174928460CF0DEFE164B17495B
:104FB000C4F8803028460CF0D7FE284601F056FB96
:104FC00001200DF0AFFCD0E7514628460CF0CCFE96
:104FD0000F4BC4F880300F49ECE7284601F0BEF8CB
:104FE000284601F043FB04A80CF0F7FE012022B094
:104FF000BDE8F08704000800A6870100179B0100A8
:1050000060130020B18701000B001200C48701006B
:1050100006001200EA8701000B000500D787010097
:105020002DE9F0410446022603274FF0FA080770E5
:105030004670C0E901680121304600250DF0A2FB51
:10504000207901210DF0B6FB294630466561E66006
:105050000DF098FB2946207B0DF0ACFB3846A6618D
:10506000C4E9077801210DF08DFB207F01210DF0AF
:10507000A1FB29463846E56267620DF083FB94F890
:10508000240029460DF096FB40F203232386204698
:10509000BDE8F0812DE9F0410446042605274FF0D4
:1050A000FA0807704670C0E9016801213046002502
:1050B0000DF068FB207901210DF07CFB294630467C
:1050C0006561E6600DF05EFB2946207B0DF072FB0A
:1050D0003846A661C4E9077801210DF053FB207F13
:1050E00001210DF067FB29463846E56267620DF045
:1050F00049FB94F8240029460DF05CFB40F205437F
:1051000023862046BDE8F0812DE9F04104460B26B8
:105110000C274FF0FA0807704670C0E901680121BA
:10512000304600250DF02EFB207901210DF042FBC9
:10513000294630466561E6600DF024FB2946207B58
:105140000DF038FB3846A661C4E9077801210DF05F
:1051500019FB207F01210DF02DFB29463846E56221
:1051600067620DF00FFB94F8240029460DF022FB36
:1051700040F60C3323862046BDE8F0812DE9F0414E
:1051800004460A260D274FF0FA0807704670C0E95A
:1051900001680121304600250DF0F4FA2079012143
:1051A0000DF008FB294630466561E6600DF0EAFA2D
:1051B0002946207B0DF0FEFA3846A661C4E907783F
:1051C00001210DF0DFFA207F01210DF0F3FA2946CD
:1051D0003846E56267620DF0D5FA94F82400294656
:1051E0000DF0E8FA40F60D2323862046BDE8F08155
:1051F0002DE9F0410446102611274FF0FA080770F8
:105200004670C0E901680121304600250DF0BAFA68
:10521000207901210DF0CEFA294630466561E6601D
:105220000DF0B0FA2946207B0DF0C4FA3846A6618D
:10523000C4E9077801210DF0A5FA207F01210DF0C6
:10524000B9FA29463846E56267620DF09BFA94F890
:10525000240029460DF0AEFA41F2110323862046C0
:10526000BDE8F0812DE9F0410446132612274FF0E6
:10527000FA0807704670C0E9016801213046002530
:105280000DF080FA207901210DF094FA294630467C
:105290006561E6600DF076FA2946207B0DF08AFA0A
:1052A0003846A661C4E9077801210DF06BFA207F2A
:1052B00001210DF07FFA29463846E56267620DF05C
:1052C00061FA94F8240029460DF074FA41F2123381
:1052D00023862046BDE8F0812DE9F04104460E26E4
:1052E0000F274FF0FA0807704670C0E901680121E6
:1052F000304600250DF046FA207901210DF05AFACA
:10530000294630466561E6600DF03CFA2946207B6F
:105310000DF050FA3846A661C4E9077801210DF076
:1053200031FA207F01210DF045FA29463846E56221
:1053300067620DF027FA94F8240029460DF03AFA36
:1053400040F60F6323862046BDE8F0812DE9F34740
:105350000423012502274FF0030804460371C37597
:105360004570877080F8038085720575477580F8F1
:105370001680077645764FF0FF31703000F0DAFD89
:1053800004F1DC0004F082FDFF2384F83C3384F850
:10539000543384F8703384F8903384F8983384F865
:1053A000A93384F8E03384F8FC3384F83934B64BFD
:1053B000C4F84033C4F85833C4F87433C4F8943391
:1053C000C4F89C33C4F8AC33C4F8E433C4F80034F4
:1053D000C4F83C3404F27C43AC4AC4F87823002679
:1053E0004FF4FA7E4FF00F0C73214FF029094FF064
:1053F0007E5004F5B06AA4F846E384F860C3A4F8CC
:105400004AE4C4F8802384F8A013C4F87C0384F829
:10541000449384F8486384F8A15384F8A45384F82F
:10542000E85384F8406484F8489484F84C6484F821
:1054300064C484F8586484F874641A609A6058608C
:10544000934BA4F84EE584F868C584F8A414C4F816
:105450004434C4F85C34C4F87834C4F89834C4F8DC
:10546000A034C4F8B034C4F8E834C4F80435C4F83F
:10547000403584F8946484F89C6484F8A55484F8D6
:10548000A85484F8AD6484F8E46484F8EC5484F897
:10549000006584F83D6584F84C9584F85065CAF839
:1054A0000020CAF80820CAF8040004F2846A84F8CC
:1054B000A815A4F852E684F86CC6C4F84835C4F8B8
:1054C0006035C4F87C35C4F89C35C4F8A435C4F8FC
:1054D000B435C4F8EC35C4F80836C4F8443684F85A
:1054E000A95584F8AC5584F8F05584F8445584F8EF
:1054F0005C5584F8785584F8985584F8A05584F85C
:10550000B15584F8E85584F8045684F8415684F877
:10551000509684F85466CAF80020CAF80820CAF8E1
:10552000040084F8AC1684F8AD5684F8B05684F8BC
:10553000F45684F8487684F8607684F87C7684F8AB
:105540009C7684F8A47684F8B57684F8EC7684F8B2
:10555000087784F8457704F5F167A4F856E784F8EE
:1055600070C7C4F84C36C4F86436C4F88036C4F842
:10557000A036C4F8A836C4F8B836C4F8F036C4F873
:105580000C37C4F8483784F8549784F858673A6061
:10559000BA60786084F8B01784F8B15784F8B457CB
:1055A00084F8F85784F84C8784F8648784F88087F7
:1055B00084F8A08704F5056084F8A88784F8B98783
:1055C00084F8F08784F80C8884F84988C4F8503748
:1055D000C4F86837C4F88437C4F8A437C4F8AC37C3
:1055E000C4F8BC37C4F8F437C4F81038C4F84C38E1
:1055F000FFF716FD40F20323A4F8823804F6840076
:10560000FFF748FD40F20543A4F8B63804F6B800A9
:10561000FFF77AFD40F60C33A4F8EA3804F6EC0004
:10562000FFF7ACFD40F60D23A4F81E3904F5126017
:10563000FFF752FE40F60F63A4F85239A4F854392C
:1056400004F65810FFF7D4FD41F21103A4F88A398B
:1056500004F68C10FFF706FE41F21233A4F8BE39AF
:105660004FF0FF3300933246294604F51C600BF0DF
:10567000A9FD04F6A46001F001FE204684F8F86E4E
:1056800002B0BDE8F08700BFBC130020CDCC8C3F3A
:10569000041800200148FFF759BE00BF5C04002039
:1056A00010B50A4CD4F8DC0204F53972904201D0EE
:1056B0000FF0EEFAD4F8C402054B984201D00FF077
:1056C000E7FA0448BDE8104000F05EBC5C0400202E
:1056D00028070020CC040020F8B5044603644FF4EA
:1056E000F4700E4617460FF0B3FA4FF48063054688
:1056F0003A46314602F050FD65642046F8BDF8B5E3
:10570000044603F10A006D46C008A5EBC00000AFD7
:1057100085467B208DF8000084208DF801008DF8EF
:1057200002106E460DF1030000218DB2AB4203D989
:10573000555C45540131F8E7606C026831465568A4
:10574000DA1CA847606C0368DB689847BD46F8BD63
:10575000F8B51F4605460C4616460DF027F90744D6
:105760000DF024F9B8420AD9686C03681B699847A0
:10577000002815DD686C03685B699847F4E7686C7E
:1057800003681B699847B042EADB013C2644B442F7
:1057900008D0686C03685B69984704F8010FF6E766
:1057A0000020F8BD0120FCE730B52DED028B31392A
:1057B00083B00446042915D8DFE801F003182A3025
:1057C0006A000A2302226946FFF7C2FF50B1A36CA8
:1057D00043B19DF80000012804D801309DF8011064
:1057E000C0B2984703B0BDEC028B30BD0A2308223B
:1057F0006946FFF7ADFF0028F4D00025294668462A
:1058000002F053FB44F815000235082DF6D1E9E704
:105810000A2306226946FFF79BFFE3E70A230622D5
:105820006946FFF795FF0028DCD00021684602F0AA
:105830003CFB07EE900A9FED338AF8EEE77AC7EE5D
:10584000887A17EE900A0FF097FBC4E90401022151
:10585000684602F02AFB07EE900AF8EEE77AC7EEF8
:10586000887A17EE900A0FF087FBC4E9060104213D
:10587000684602F01AFB07EE900AF8EEE77AC7EEE8
:10588000887A17EE900A0FF077FBC4E90801A9E7C0
:105890000A2306226946FFF75BFF0028A2D00021F9
:1058A000684602F002FB07EE900A9FED178AF8EEB9
:1058B000E77AC7EE887A17EE900A0FF05DFBC4E92D
:1058C0000A010221684602F0F0FA07EE900AF8EEAB
:1058D000E77AC7EE887A17EE900A0FF04DFBC4E91D
:1058E0000C010421684602F0E0FA07EE900AF8EE97
:1058F000E77AC7EE887A17EE900A0FF03DFBC4E90D
:105900000E016FE70000C84200007A442DE9F84319
:105910001746054688460DF049F8204C07440026F6
:105920004FF002090DF042F8B84232D8686C0368B3
:105930001B6998470028F5DD2368012B0CD0022B4A
:1059400014D023BB686C03685B699847C0B27B289E
:10595000E8D101232360E5E7686C03685B69984739
:10596000C0B2842814BF33464B46F3E7686C036823
:105970005B6998475FFA88F3C1B28B42266002D117
:105980000120BDE8F8832846FFF70EFFCAE726602E
:10599000C8E7024B00201860F3E700BF581300204F
:1059A00037B501390124C9B204FA01F105468DF871
:1059B00004108DF80520214601AA0223FFF79FFE5F
:1059C000642221462846FFF7A1FF68B10A23224638
:1059D00069462846FFF7BCFE40B19DF80000003044
:1059E00018BF012003B030BD0420FBE70520F9E714
:1059F000F0B5013985B004ADC9B2012606FA01F14E
:105A00001F46044605F8081D0DF10900114602F075
:105A100060FA39460DF10B0002F05BFA2A460421C8
:105A200020460523FFF76BFE642204212046FFF782
:105A30006DFF68B10A23324601A92046FFF788FEB0
:105A400040B19DF80400003018BF012005B0F0BD42
:105A50000420FBE70520F9E7F0B5013985B004AD76
:105A6000C9B2012606FA01F11F46044605F8081DD1
:105A70000DF10900114602F02CFA39460DF10B0028
:105A800002F027FA2A46062120460523FFF737FEB3
:105A9000642206212046FFF739FF88B10A233246E7
:105AA00001A92046FFF754FE60B19DF8040028B11B
:105AB000022809D003280CBF0920304605B0F0BDEC
:105AC0000420FBE70520F9E70820F7E737B501399F
:105AD000C9B2012505FA01F1044600238DF804102E
:105AE0000DF1060011468DF8053002F0F6F9042399
:105AF0000DEB030211212046FFF701FE6422112164
:105B00002046FFF703FF78B10A232A46694620465C
:105B1000FFF71EFE50B19DF8000018B102280CBF1F
:105B20001020284603B030BD0420FBE70520F9E72C
:105B300037B50139C9B2012505FA01F10446002340
:105B40008DF804100DF1060011468DF8053002F0B5
:105B5000C4F904230DEB030212212046FFF7CFFD09
:105B6000642212212046FFF7D1FE78B10A232A468B
:105B700069462046FFF7ECFD50B19DF8000018B1D2
:105B800002280CBF0F20284603B030BD0420FBE7DD
:105B90000520F9E773B5013902ADC9B2012606FA4D
:105BA00001F105F8041D044611460DF1050002F04F
:105BB00090F92A46152120460323FFF7A0FD642211
:105BC00015212046FFF7A2FE78B10A233246694626
:105BD0002046FFF7BDFD50B19DF8000018B1022826
:105BE0000CBF1520304602B070BD0420FBE7052035
:105BF000F9E737B5013902AA0124C9B204FA01F163
:105C000002F8081D054618212346FFF778FD642297
:105C100018212846FFF77AFE68B10A23224601A917
:105C20002846FFF795FD40B19DF80400003018BFED
:105C3000012003B030BD0420FBE70520F9E770B573
:105C40008AB00AAE0C4640F2011391ED000A26F824
:105C5000203D05460DF10A0002F02EF994ED010AEF
:105C60000DF10E0002F028F994ED020A0DF1120078
:105C700002F022F994ED030A0DF1160002F01CF96E
:105C800094ED040A0DF11A0002F016F994ED050ADC
:105C90000DF11E0002F010F932460E2128461A239B
:105CA000FFF72DFD64220E212846FFF72FFE68B175
:105CB0000A23012201A92846FFF74AFD40B19DF8B9
:105CC0000400003018BF01200AB070BD0420FBE7BB
:105CD0000520F9E737B5154602AA013902F8081D73
:105CE000044621210123FFF70AFD642221212046D9
:105CF000FFF70CFE78B10A23012201A92046FFF725
:105D000027FD50B19DF80430003318BF01232B70DC
:105D1000002003B030BD0420FBE70520F9E71FB5E4
:105D200004AA552302F80C3D0446FF210123FFF786
:105D3000E6FC6422FF212046FFF7E8FD78B10A2344
:105D4000012202A92046FFF703FD50B19DF808008B
:105D50009DF80430C01A18BF012004B010BD042003
:105D6000FBE70520F9E770B5002340F21342064631
:105D7000D0E9101002F076FA4FF47A700CF0D2FDF0
:105D800032253046FFF7CBFF0446FA200CF0CAFD5F
:105D900014B1013DF5D10324204670BD30B5002378
:105DA00085B004461A460D46FE21FFF7A8FC642282
:105DB000FE212046FFF7AAFDF0B10A230122694621
:105DC0002046FFF7C5FCC8B19DF8003000EE103A40
:105DD000B8EEC00AF2EE047A80EE270A022101A88A
:105DE0000CF088F801A928460CF074F801A80BF013
:105DF000F4FF002005B030BD0420FBE70520F9E7E3
:105E00004FF46143092208210148FFF765BC00BF38
:105E100060130020002070477047002930B51ADB5E
:105E2000B0F90C408C4216DD002A14DBB0F90E40AC
:105E3000944210DD847E022C0ED0032C15D0012C50
:105E400004D10489D24314440A4621B2012B11D053
:105E50001FD3022B2CD030BD0489C9432144D44325
:105E6000428909B2144422B2F0E74489C9430C4480
:105E70001146F8E70589C06A082492FBF4F414FB84
:105E8000051102F0070203FA02F2435C1A4342547E
:105E9000E1E70489C06A082392FBF3F313FB0411C2
:105EA00002F0070201239340425C22EA0302EEE77C
:105EB0000489C06A082392FBF3F313FB041102F078
:105EC0000702012303FA02F2435C5A40DFE7FFFFB7
:105ED00038B504461D4600F0F7FD134B2360134B05
:105EE0000022954208BF1D46FF2384F8333084F812
:105EF000343084F8353084F836309DF9103084F829
:105F00003730059BA365069BE365094B6366012358
:105F10006262C4E90A5284F8682084F8693084F81F
:105F20006A20204638BD00BF08880100BC1300204D
:105F300000093D0038B5202204460D46802100F0BE
:105F4000C3FD0E4B0E4A23600023C4E90A23FF223F
:105F500084F8332084F8342084F8352084F83620FF
:105F6000084A62660122636284F8375084F8683018
:105F700084F8692084F86A30204638BD088801001A
:105F8000BC13002000093D00044B10B5044603601B
:105F9000C06A08B10FF0F6FD204610BD0888010068
:105FA0002DE9F0410446806A0E4698B194F930100C
:105FB00003F077F8A06A036800211B689847A06A7D
:105FC000036831461B689847A06A0368BDE8F04142
:105FD0005B6B1847226C206D136823EA0003606A2C
:105FE000136020B10368BDE8F0419B681847D4E90D
:105FF0000E23082180201568A76C064214BF3D437C
:10600000BD4315601D68E76C3D431D601D68E76C6E
:10601000013925EA07051D604FEA5000EBD1BDE8C4
:10602000F08170B50446806A0D4690B10368A16D99
:106030009B6A9847002D204614BFA721A621FFF791
:10604000AFFFA06AA8B10368E16D9B6ABDE870402C
:106050001847606A30B10368DE6904F1640393E8AD
:106060000600B047626C616D136823EA0103136098
:10607000E0E7626C616D1368606A0B43136020B1E6
:106080000368BDE870401B6A184770BD2DE9F041F8
:106090000446806A0D468F1848B394F9301003F017
:1060A00000F8A06A036800211B6898470126A06ACF
:1060B000BD42036817D0FE2E0CD95B6B984794F94C
:1060C0003010A06A02F0EDFFA06A036800211B688F
:1060D00098470126A06A15F8011B036801361B6862
:1060E0009847B6B2E3E75B6BBDE8F0411847226C16
:1060F000216D136823EA01031360AF422CD0606A5C
:1061000015F8011B18B103689B689847F5E7D4E9B7
:106110000E234FF008088026D2F800C0D4F848E0DB
:10612000314214BF4CEA0E0C2CEA0E0CC2F800C02F
:10613000D3F800C0E06C4CEA000CC3F800C0D3F800
:1061400000C0E06CB8F101082CEA000CC3F800C0F4
:106150004FEA5606E0D1D0E7BDE8F081B0F90A3049
:106160000822073393FBF2F3B0F90820C06A5A43C0
:1061700000210FF099BDFFFF2DE9F0411E46C36AD3
:106180009DF81870044688461546002B3DD02046E1
:10619000FFF7E4FFA06A84F83180002845D101218F
:1061A00094F83500DFF87C820CF0ECFA012194F8C9
:1061B00036000CF0E7FA94F93530606A38F833208D
:1061C000131203F1007303F500535B0123640125EF
:1061D00094F93630D2B205FA02F2226538F833204B
:1061E000131203F1007303F50053D2B25B0105FAF9
:1061F00002F26265196863640A431A60002800F0BD
:10620000AC801FB30368DB6A1FE0B0F90A300820D6
:10621000073393FBF0F3B4F9080058430FF0AAFCDE
:10622000E0620028B3D1BDE8F081002D40F09380FA
:10623000B4F90A30202B14BF3D253C2584F830509A
:10624000002F00F0DF800368DB699847E6B194F91E
:106250003700002818DB0121C0B20CF093FA0121AD
:1062600094F837000CF0A6FA01200CF05BFB00213B
:1062700094F837000CF09EFA0A200CF053FB012131
:1062800094F837000CF096FAA06A002800F091808C
:106290000368A16D9B6A984704225C492046FFF77A
:1062A000F5FEA17A0139C9B22046FFF779FE5849B7
:1062B00004222046FFF7EAFE94F93130012B14BF87
:1062C000142110212046FFF76BFE0422514920467D
:1062D000FFF7DCFE8F2384F860304F4AA3689342B7
:1062E00000F0828002F50012934272D194F93130AD
:1062F000012B14BFCF239F2384F860301225DA21AD
:106300002046FFF74DFE29462046FFF749FE812132
:106310002046FFF745FE94F860102046FFF740FE48
:10632000D9212046FFF73CFE94F93130012B14BFF0
:10633000F12122212046FFF733FE2046062237496D
:10634000FFF7A4FEA06A002850D00368E16D9B6AA5
:106350009847012067E76DB270E7294694F833004B
:106360000CF010FA294694F834000CF00BFA94F96A
:10637000333038F83320131203F1007303F5005360
:106380005B01A363D2B294F9343005FA02F2A2643D
:1063900038F83320131203F10073D2B203F500531F
:1063A0005B019540E5641A68E36322EA05051D6018
:1063B0004CE7606A30B10368DD6904F1640393E877
:1063C0000600A847626C616D136823EA010313603D
:1063D00062E7134A934207D194F93130012B14BF7D
:1063E000AF23102384F86030022588E7626C616D6A
:1063F0001368606A0B4313600028AAD003681B6A05
:106400009847A6E7002E7FF422AF41E76888010095
:106410006C880100708801008000200074880100F1
:10642000600010009C91010070B5002ABDF810506A
:106430003FDBB0F90A4094423BDD0029BEBF5B1848
:106440001BB20021B0F90840CE18A642C4BF631A9F
:106450001BB2002B2DDDC06A082692FBF6F614FB5A
:106460000611014402F0070001228240012DD2B240
:106470000BD013D3022D1CD10B44994219D011F823
:10648000010B504001F8010CF7E70B44994210D082
:1064900011F8010B104301F8010CF7E7D243D2B217
:1064A0000B44994205D011F8010B104001F8010C82
:1064B000F7E770BDF0B50029BDF8146078DBB0F9DE
:1064C00008C0614574DA002ABEBF9B181BB20022C7
:1064D000B0F90A40D518A542C4BFA31A1BB2002BBD
:1064E00066DDD2B2DDB2C76AD3081CFB031112F01D
:1064F000070307EB010422D0C3F10803DBB2324AE1
:106500009D42D25C59D2A3EB050E4FF0FF0C4CFA22
:106510000EFC012E0CEA020207D027D3022E47D12F
:1065200017F801C082EA0C0203E017F801C042EA42
:106530000C029D427A543BD3B0F908201444EB1A64
:10654000DBB2072B26D9022E15D11A462178C94372
:106550002170083AB0F90810D2B2072A0C44F5D8D5
:1065600013F0070324D0194AD35C1BE017F801C0CD
:106570002CEA0202DDE7002E14BFFF2500251A4693
:106580002570083AB0F90810D2B2072A0C44F7D89F
:1065900003F0070363B10D4A012ED35C05D008D385
:1065A000022E05D12278534001E022781343237054
:1065B000F0BD227822EA0303F9E7012EB5D0D5D346
:1065C000022EADD06444BAE758880100608801000B
:1065D00030B41446827EBDF80850022A0DD0032A3A
:1065E00018D0012A11D10289E443144424B202953F
:1065F0000A46214630BCFFF75DBF4289E44314449C
:1066000002891944511A24B209B20295224630BCBB
:10661000FFF70ABF42891944511A09B2E7E730B4BB
:106620001446827EBDF80850022A0DD0032A18D0E5
:10663000012A11D102891C44141B24B202950A4676
:10664000214630BCFFF7F0BECA4301890A4411B2AB
:1066500042891C44141B24B20295224630BCFFF729
:1066600029BFCA4341890A4411B2E7E72DE9F04145
:106670000446806A002843D00368A16D9B6A98474E
:1066800005224E492046FFF701FD217A01392046B7
:10669000C9B2FFF785FCB4F90A3008260733D4E9FC
:1066A0000A0593FBF6F3268916FB03F615FA86F620
:1066B000002840D094F9301002F0F3FCA06A03687F
:1066C00040211B6898470127A06AB542036827D07C
:1066D000FE2F0CD95B6B984794F93010A06A02F03A
:1066E000E0FCA06A036840211B6898470127A06A64
:1066F00015F8011B036801371B689847BFB2E3E731
:10670000606A30B10368DD6904F1640393E8060050
:10671000A847626C616D136823EA01031360AFE759
:106720005B6B9847A06A002839D00368E16D9B6ACB
:10673000BDE8F0411847226C216D13680B431360CC
:10674000B542EFD0606A15F8011B18B103689B6869
:106750009847F5E7D4E90E234FF008088027D2F8D0
:1067600000C0D4F848E0394214BF4CEA0E0C2CEAC1
:106770000E0CC2F800C0D3F800C0E06C4CEA000C6C
:10678000C3F800C0D3F800C0E06CB8F101082CEAEF
:10679000000CC3F800C04FEA5707E0D1D0E7626CA5
:1067A000616D1368606A0B43136020B10368BDE834
:1067B000F0411B6A1847BDE8F08100BF7A880100EC
:1067C0002DE9F04F85B01D46BDF93840BDF83CA01D
:1067D000A31A83EAE37BABEBE37B6B1A002BB8BF16
:1067E0005B429B4581461646019304DC23460E46D8
:1067F0002C4611461D46A64205DC2B460D46194681
:10680000234634461E464B1B002BA6EB0408B8BF9C
:106810005B421FFA88F802930FFA88F7022397FB6E
:10682000F3F300938D42ACBF4FF0FF33012303938A
:10683000B44220DCD9F800309B691F46019B9B4580
:10684000CCBF22462A465346CCBF2946214648465D
:10685000B847009A029BD71ABBB21AB2002A00921C
:1068600006DA039A08EB030715443BB22DB20093F6
:10687000013424B2DCE705B0BDE8F08F704710B4F6
:1068800004682469A4465DF8044B604730B404688A
:10689000BDF808500295A46BA44630BC604730B4E4
:1068A0000468BDF808500295E46BA44630BC60470C
:1068B00070B4BDF90C50BDF810600468CDE9035602
:1068C000246CA44670BC60472DE9F3411C46036864
:1068D000BDF820805B6905461646013C34440F46EE
:1068E00024B298472B68CDF8048000949C6A28460F
:1068F0003B4632463946A0472B68DB6A284602B041
:10690000BDE8F04118472DE9F3411D460368BDF885
:1069100020805B69044617460E469847CDE900780B
:1069200022686B1E3344956A20461BB23A463146B4
:10693000A8472368DB6A204602B0BDE8F04118474B
:106940002DE9F3471E460368BDF928805B69BDF851
:106950002C900C460546174698472644B4422A68B0
:106960000BDACDF80090D2F820A0214643463A46F3
:1069700028460134D04724B2F0E7D36A284602B053
:10698000BDE8F047184713B5B0F90E20046801912F
:1069900000920022B0F90C30246C1146A04702B0DE
:1069A00010BD2DE9F3471D460368BDF82C705B69E7
:1069B000BDF92890044688461646984723680097F4
:1069C000D3F824A032462B4641462046D0472368C0
:1069D000009709F1FF323244D3F824A041462B46F8
:1069E000204612B2D04723680097D3F820A0324641
:1069F0004B4641462046D04723680097691E4144D4
:106A00001D6A20464B46324609B2A8472368DB6A16
:106A1000204602B0BDE8F047184770472DE9F3471C
:106A2000994280460C4615469946BDF92860BDF846
:106A30002CA0076811D1B242DCBF33461D46CDF809
:106A400028A0D8BF16466B1CBD6B9B1B1BB23246E1
:106A5000AC4602B0BDE8F0476047B2420ED1994261
:106A6000D8BF1C46CDF828A0D8BF8946631CFC6B54
:106A7000A3EB09031BB24946A446EAE77B699847A2
:106A8000CDE9006AD8F8003040469E6A2A464B4657
:106A90002146B047D8F80030DB6A404602B0BDE876
:106AA000F047184701F0030101298176B0F9083059
:106AB000B0F90A2004D0032902D08381C281704733
:106AC0008281C3817047FFFF30B54281C2814FF0A0
:106AD000FF32426140F201120024064D028301227E
:106AE000446005600181818104618476C276047707
:106AF000046230BD888D01002DE9F04F91B09146C0
:106B0000026A05911F46BDF8683002930446BDF83D
:106B10006CA09DF870609DF87450002A40F0B88019
:106B2000B0F90C308B4240F33781B0F90E304B4551
:106B300040F33281062313FB0613002B40F32C8114
:106B400009EBC503002B40F32781037F1BB9AF2F4F
:106B500084BF0137FFB2236820465B69984705234D
:106B60000A931FFA89F34FF00008069305238C4A15
:106B700013FB0783D35C0793B3B20893BDF81430BB
:106B80000393039A089B08FB03231BB20993082372
:106B90000B930023049312FA88F31BB20C93079A09
:106BA0002368D2074DD5012EBDF810203AD1012D12
:106BB00038D10699D3F818B0029B0A4412B20C9946
:106BC0002046D847049B01335BB20493079B5B08C4
:106BD00007930B9B013B13F0FF030B93DFD10A9B41
:106BE000013B08F1010813F0FF034FFA88F80A93FC
:106BF000BCD1029B53450ED0012E236837D1012D05
:106C000035D10399CDF800A005311D6A4A46082305
:106C100009B22046A8472368DB6A204611B0BDE8C8
:106C2000F04F1847069915FB02F20A4402990191A8
:106C30000095D3F81CB00999334612B22046D847C4
:106C4000C0E7029A5245BDD0012EBDF8102007D1F1
:106C5000012D05D10699D3F818B00A445346ADE783
:106C60000699CDF804A015FB02F20A44E0E7089A61
:106C7000CDF804A002EB8201039AED000A4411460C
:106C80000095DD694A46334609B22046A847C2E767
:106C9000137A516812680D92FF1AFFB201EBC70315
:106CA00031F8372003929A780792DA780B92012E06
:106CB00093F90520089293F906B001D8012D51D916
:106CC000BDF9203006930FFA8BF304932368204616
:106CD0005B6998471FFA89F34FF0000809935B44FA
:106CE000C24647460F930B9B9F4294D2049B099A3E
:106CF0003B4403FB05230F9A3A441BB212B20A939A
:106D00004FF0000943460E92079A91453DD25A1C16
:106D1000D2B25B070C9207D1039B03990D9A013302
:106D20009BB212F801A003931AF0800F10D0012E2D
:106D30002268BDF8141019D1012D17D1089BD2F883
:106D400018B00E9A19444944029B09B22046D8470C
:106D50004FEA4A0A09F101095FFA8AFA5FFA89F9EA
:106D60000C9BD1E7002304930693AFE7069B4B44AB
:106D700003FB0611029BCDE9005309B2D2F81CB007
:106D80000A9A33462046D847E2E7079B01379844E2
:106D90005FFA88F8FFB2A6E711B0BDE8F08F00BF38
:106DA0007F880100F0B5026A85B004460B46002AD0
:106DB00034D10A2908D10282438A427E03EBC203FE
:106DC0006382012005B0F0BD0D29FAD0E17E007E7E
:106DD000657E71B1B4F91060062111FB0061B4F950
:106DE0000C60B142C1BFB4F91210228201EBC5029E
:106DF0006282CDE90205E08A0190A08AB4F91220EE
:106E00000090B4F910102046FFF776FE237E228A08
:106E100003EB430302EB43032382D2E70A2907D1A2
:106E200000230382137B417E428A01FB0323C7E7D1
:106E30000D29C6D0157AA942C3D3917A9942C0D3FD
:106E40005D1B5168EDB201EBC505AF782FB3E97852
:106E500019B3E17E007E667E91B195F90510394443
:106E6000B4F9107000FB0171B4F90C70B94207DD80
:106E700000272782B4F91210127B02FB06126282ED
:106E8000CDE90206E08A0190A08A0090B4F91220B0
:106E9000B4F910102046FFF72FFE2979237E228AAD
:106EA00001FB0323B8E7002908BF0121002A08BF1E
:106EB00001220176427670470A46FFF7F4BF0121AE
:106EC000C0B20BF077BC2DE9F041002405460F4617
:106ED00026464FF0010847FA04F111F00101686AF3
:106EE00024D0FFF7ECFF002195F820000BF062FCA6
:106EF00005200BF013FD95F82C000BF067FC18B182
:106F000008FA04F31E43F6B2286AFFF7D8FF0134EB
:106F100005200BF003FD082CDDD1686AFFF7CFFFD9
:106F200012200BF0FBFC3046BDE8F081C0B20BF044
:106F300041FCD8E7F8B50E460446002190F8280039
:106F400017460BF037FC12200BF0E8FC3546AB1B64
:106F50009F4205DD15F9011B2046FFF7B4FFF6E758
:106F6000A06AFFF7ACFF94F83400BDE8F8400BF0DE
:106F7000D9BCFFFF10B5052204460F49FFF7DAFF21
:106F800009220E492046FFF7D5FF94F8363023B189
:106F900005220B492046FFF7CDFF94F8373023B187
:106FA000092208492046FFF7C5FF20460922064965
:106FB000BDE81040FFF7BEBF0D00002020000020FC
:106FC000120000201700002004000020FFFFFFFF38
:106FD0002DE9F047044686B015468A460BF0E6FCDC
:106FE000236BC01A0DF0A6FF49A3D3E90023064680
:106FF0000F460EF0A9FA10B12046FFF7BBFF94F838
:1070000034000DF0A7FF32463B46804689460EF01D
:107010009BFA48B132463B46404649460DF04CFE8D
:107020000EF0DAFA0BF07EFC3DB1FF22284600920A
:10703000402300210AF06CFDC5B20023CDF80E30CC
:10704000CDF8113044F201238DF81050ADF80C301A
:107050008DF80FA0052503AF606AFFF730FF206AA7
:10706000FFF72DFF002194F828000BF0A3FB12205E
:107070000BF054FC0026B9572046FFF724FFA0551B
:107080000136092EF7D16378792B0BD104F109066B
:1070900004F1150800212046FFF715FF06F8010B43
:1070A000B045F7D1A06AFFF70AFF637803F0F00359
:1070B000702B0AD02046FFF75DFF013D94F83400A5
:1070C0000BF030FC15F0FF05C6D1637803F0F00338
:1070D000702B06D094F83430092B9CBF013384F810
:1070E0003430E369A3612279E37803EB0223E3619F
:1070F0000BF05CFC2063607800F0F000A0F17003FE
:107100005842584106B0BDE8F08700BFAFF3008099
:10711000000000000070974000221146FFF758BFA2
:107120002DE9F04F85B004469DF838509DF83C702D
:107130009DF840809946C4E90812C4E90A3508461A
:10714000012116460BF01EFB012148460BF01AFBED
:10715000012130460BF016FB002128460BF012FBF4
:10716000606AFFF7ACFE206AFFF7A9FE2046FFF732
:10717000D3FF2046FFF7D0FF6378A3F14102012A35
:1071800003D9732B01D0792B62D10123DFF8E4A05E
:10719000DFF8E49084F834300B260522514620466F
:1071A000FFF7C8FE12200BF0B9FB606AFFF787FEFD
:1071B000206AFFF784FE002194F828000BF0FAFA09
:1071C00012200BF0ABFB00250DF1040B19F9051093
:1071D0002046FFF778FE0BF805000135092DF5D1A3
:1071E000A06AFFF76CFE9DF8073084F835302A4618
:1071F0001C492046FFF79EFEB8F1000F07D005227C
:1072000019492046FFF796FE012384F836303FB136
:10721000092216492046FFF78DFE012384F83730F6
:10722000092213492046FFF785FE2046FFF774FF29
:1072300063781FB1792B11D0732B0DD0732B0DD028
:10724000013E0DD094F83430013384F83430A4E793
:10725000012005B0BDE8F08F0320FAE70020F8E731
:107260000220F6E720000020120000201700002076
:10727000040000200D000020D88D010010B5002171
:10728000044602200BF07EFA012103200BF07AFA6B
:10729000012106200BF076FA012107200BF072FA8B
:1072A000012108200BF06EFA012109200BF06AFA87
:1072B00001210A200BF066FA01210B200BF062FA83
:1072C00002210C200BF05EFA01210D200BF05AFA7E
:1072D000204610BDC3B2000A03FA00F0013080B2AC
:1072E000704760B10138002330F0FF019AB203F11A
:1072F000010301D04008F7E740EA022080B270475E
:10730000064B594301F5FA714FF47A73B1FBF3F16F
:10731000484300F5FA70B0FBF3F07047002F3A00D5
:10732000084B4FF47A72594301F5FA714FF4FA633E
:10733000B1FBF3F3B1FBF2F102FB0030B0FBF1F073
:10734000704700BF002F3A0038B5044670214069ED
:1073500001F0A7FE6069217C0368012505FA01F1AF
:107360001B68C9B298476069036829461B6B984738
:107370006420BDE838400BF0D1BA70B5044615461C
:107380000E46FFF7E1FF606921780368DB6A9847E2
:107390006069036831461B6898476069036829463D
:1073A0001B689847606903685B6B9847207670BDDF
:1073B00070B5044615460E46FFF7C6FF6069217892
:1073C0000368DB6A98476069036831461B68984721
:1073D00060690368290A1B68984760690368E9B215
:1073E0001B689847606903685B6B9847207670BD9F
:1073F00010B5B5EEC00AF1EE10FA2DED028B044681
:10740000B0EE408A1AD410EE100A0DF0B5FD0DA3AF
:10741000D3E900230EF098F880B99FED090A28EE11
:10742000008A2046BCEEC88A442118EE103A9AB26F
:10743000FFF7BEFF0120BDEC028B10BD0020FAE774
:1074400000000043A4703D0AD7FF7F4070B504469A
:1074500015460E46FFF778FF606921780368DB6AFE
:1074600098476069036831461B68984760690368FC
:10747000290E1B68984760690368C5F307411B68BC
:10748000984760690368C5F307211B6898476069DE
:107490000368E9B21B689847606903685B6B9847AB
:1074A000207670BD38B504460D46FFF74DFF606984
:1074B00021780368DB6A98476069036829461B687E
:1074C0009847606903685B6B98472076606921780C
:1074D00003680122DB6B9847606903685B69984722
:1074E000C0B238BD08B531B95021FFF7DBFF01301C
:1074F0004000C0B208BD012901D17021F5E7FF208D
:10750000F8E7F8B504460F46164680210122FFF73A
:1075100034FF0122FF212046FFF72FFF00221146F2
:107520002046FFF72AFF0622FF212046FFF725FF0E
:1075300083212046FFF7B6FF40F00402D2B2832138
:107540002046FFF71AFF0722FF212046FFF715FF0D
:10755000012281212046FFF710FF012280212046D1
:10756000FFF70BFF6B2294212046FFF706FF002256
:1075700083212046FFF701FF0BF018FAE0808321FA
:107580002046FFF78FFF054660B96388002BF6D0D1
:107590000BF00CFAE388C01A638880B28342EED203
:1075A000284637E0012283212046FFF7E6FE92219C
:1075B0002046FFF777FF00F07F03C0F3C0103B7059
:1075C0000022307081212046FFF7D7FE0622FF21DE
:1075D0002046FFF7D2FE83212046FFF763FF832179
:1075E00000F0FB022046FFF7C8FE0122FF212046E3
:1075F000FFF7C3FE012200212046FFF7BEFE002256
:10760000FF212046FFF7B9FE204600228021FFF728
:10761000B4FE0120F8BD10B50C460121FFF742FF72
:10762000C0F300132370C0F3C003A370C0F3800342
:107630006370C0F38013C0F3C010E370207110BDFD
:1076400038B541F0010200210446FFF796FE0BF029
:10765000ADF9E08013212046FFF724FF10F0070565
:107660000CD16388002BF5D00BF0A0F9E388628879
:10767000C31A9BB29A42EDD228460AE001220B219E
:107680002046FFF77AFE002220461146FFF775FEDE
:10769000012038BD38B504460D46FFF755FE606938
:1076A00021780368DB6A98476069036829461B688C
:1076B0009847606903685B6B98472076606921781A
:1076C00003680222DB6B9847606903685B6998472F
:1076D0000546606903685B69984740EA052080B207
:1076E00038BD38B5012204460D468021FFF745FE1E
:1076F0000122FF212046FFF740FE002211462046CE
:10770000FFF73BFE227A91212046FFF736FE012249
:1077100000212046FFF731FE0022FF212046FFF71F
:107720002CFE002280212046FFF727FE8DB1F82194
:107730002046FFF7AFFF00B145432A46042120460B
:10774000FFF784FE042220460021BDE83840FFF701
:1077500014BE0222F7E770B50E4600211446054616
:10776000FFF7C0FE462120802846FFF79BFE013030
:1077700080B22178A080FFF7C3FD5121E060284648
:10778000FFF788FFFFF7A6FD2178E080FFF7B8FD3F
:10779000702120612846FFF785FE01304000C0B20D
:1077A000608071212846FFF775FFFFF793FDF3789E
:1077B000208113B1E388C01A2081A1782089FFF7C6
:1077C0009FFD606170BDF0B589B005460E46694603
:1077D000FFF721FF02AA69462846FFF7BCFF9DF884
:1077E000003063B3059800F684509DF802304BB327
:1077F000059B03F2B22300EB43009DF803701FB119
:10780000069B03F5257318449DF804401CB300F251
:107810002620B04221D89DF80A10301AFFF780FDCB
:1078200017B1BDF80E301844FFF75BFD7121024619
:107830002846FFF7BDFDEE60204609B0F0BD40F6DA
:107840003630D2E79DF80130002BD6D0059B03F5EA
:1078500025731844D1E70124EEE70024ECE710B5C6
:1078600088B004466946FFF7D6FE02AA694620465C
:10787000FFF771FF9DF80030DBB1059800F68450EA
:107880009DF80230C3B1059B03F2B22300EB430025
:107890009DF803301BB1069B03F5257318449DF832
:1078A00004301BB1079B03F226231844E06008B0A4
:1078B00010BD40F63630E3E79DF80130002BE7D0ED
:1078C000059B03F525731844E2E738B504460BF031
:1078D0006DF8E08013212046FFF7E4FD430710D147
:1078E0006388002BF6D00BF061F8E388C01A638838
:1078F00080B28342EED2012323714FF6FF752846F2
:1079000038BD1E212046FFF7C5FE012205460B218A
:107910002046FFF732FDF2E7F8B5044615460F465C
:107920001E46FFF711FD606921780368DB6A9847FE
:107930006069036839461B6898472E446069B54200
:10794000036804D01B6815F8011B9847F6E75B6BCA
:1079500098472076F8BDF8B5044615461E460F46F2
:10796000FFF7F2FC606921780368DB6A9847606979
:10797000036839461B689847606903685B6B9847E2
:1079800020766069217803683246DB6B98472E4485
:10799000B54206D0606903685B69984705F8010B3A
:1079A000F6E7F8BDF0B50D4685B0C0210446FFF7F7
:1079B00079FDEE2803D00025284605B0F0BD55B16D
:1079C00089212046FFF76EFD40F00102D2B28921E5
:1079D0002046FFF7D2FC002288212046FFF7CDFC8D
:1079E000012280212046FFF7C8FC0122FF2120460A
:1079F000FFF7C3FC002211462046FFF7BEFC912191
:107A00002046FFF74FFD0122207200212046FFF79C
:107A1000B4FC0022FF212046FFF7AFFC00228021AA
:107A20002046FFF7AAFC60212046FFF73BFD40F00F
:107A30001202D2B260212046FFF79FFCB5EE000A89
:107A40002046FFF7D5FCFF2201212046FFF795FCD9
:107A50000DF107020DF106012046FFF752FD002847
:107A6000A9D0062302AAB0212046FFF774FF012205
:107A7000FF212046FFF781FC00224F212046FFF71F
:107A80007CFC2C224E212046FFF777FC0022FF21B0
:107A90002046FFF772FCB422B6212046FFF76DFCAA
:107AA0009DF807309DF80670002B4FF000050CBFC5
:107AB0004FF0000C4FF00C0C2A464FF0010EE8B2CC
:107AC00004AB03EBD006844516F8083C00F0070130
:107AD00002D8974240F0E3810EFA01F123EA010354
:107AE00006F8083C0135302DE9D1062302AAB02161
:107AF0002046FFF711FF0122FF212046FFF73DFC42
:107B0000002211462046FFF738FC0022FF212046C4
:107B1000FFF733FC002209212046FFF72EFC00224C
:107B200010212046FFF729FC002211212046FFF7F3
:107B300024FC012224212046FFF71FFCFF222521DF
:107B40002046FFF71AFC002275212046FFF715FC9E
:107B50000122FF212046FFF710FC2C224E21204657
:107B6000FFF70BFC002248212046FFF706FC2022ED
:107B700029462046FFF701FC0022FF212046FFF79F
:107B8000FCFB092229462046FFF7F7FB002254217F
:107B90002046FFF7F2FB042231212046FFF7EDFBE0
:107BA000032232212046FFF7E8FB832240212046B2
:107BB000FFF7E3FB252246212046FFF7DEFB0022EC
:107BC00060212046FFF7D9FB002227212046FFF73E
:107BD000D4FB062250212046FFF7CFFB0022512183
:107BE0002046FFF7CAFB962252212046FFF7C5FB2D
:107BF000082256212046FFF7C0FB2A46572120467F
:107C0000FFF7BBFB002261212046FFF7B6FB0022F5
:107C100062212046FFF7B1FB002264212046FFF7D6
:107C2000ACFB002265212046FFF7A7FBA0226621BE
:107C30002046FFF7A2FB0122FF212046FFF79DFB14
:107C4000322222212046FFF798FB142247212046AA
:107C5000FFF793FBFF2249212046FFF78EFB00220E
:107C60004A212046FFF789FB0022FF212046FFF72B
:107C700084FB0A227A212046FFF77FFB00227B212A
:107C80002046FFF77AFB212278212046FFF775FB7B
:107C90000122FF212046FFF770FB342223212046DA
:107CA000FFF76BFB002242212046FFF766FBFF2215
:107CB00044212046FFF761FB262245212046FFF79D
:107CC0005CFB052246212046FFF757FB4022114668
:107CD0002046FFF752FB06220E212046FFF74DFB00
:107CE0001A2220212046FFF748FB4022432120464C
:107CF000FFF743FB0022FF212046FFF73EFB032254
:107D000034212046FFF739FB442235212046FFF776
:107D100034FB0122FF212046FFF72FFB04223121F3
:107D20002046FFF72AFB09224B212046FFF725FBBF
:107D300005224C212046FFF720FB04224D2120463E
:107D4000FFF71BFB0022FF212046FFF716FB002256
:107D500044212046FFF711FB202245212046FFF752
:107D60000CFB082247212046FFF707FB2822482169
:107D70002046FFF702FB002267212046FFF7FDFAAD
:107D8000042270212046FFF7F8FA012271212046D3
:107D9000FFF7F3FAFE2272212046FFF7EEFA0022E7
:107DA00076212046FFF7E9FA002277212046FFF7E7
:107DB000E4FA0122FF212046FFF7DFFA01220D211C
:107DC0002046FFF7DAFA0022FF212046FFF7D5FA16
:107DD000012280212046FFF7D0FAF8220121204617
:107DE000FFF7CBFA0122FF212046FFF7C6FA012256
:107DF0008E212046FFF7C1FA012200212046FFF71D
:107E0000BCFA0022FF212046FFF7B7FA00228021AA
:107E10002046FFF7B2FA04220A212046FFF7ADFA06
:107E200084212046FFF73EFB842100F0EF0220462C
:107E3000FFF7A3FA01220B212046FFF79EFA204606
:107E4000FFF70DFDE822E06001212046FFF795FADB
:107E5000E1682046FFF7B7FC012211462046FFF7F4
:107E60008CFA40212046FFF7EBFB00283FF4A3AD3E
:107E7000022201212046FFF780FA00212046FFF769
:107E8000DFFB054600283FF496AD2046E82201219D
:107E9000FFF773FA00212046FFF723FC8CE50B4126
:107EA000DB0744BF0132D2B21CE6435C0844407891
:107EB00043EA002000B2704710EE103AC3F30722E5
:107EC00003704270C3F30742C3F307638270C37049
:107ED00070470170090A417070470170C1F30721B2
:107EE00041707047D0F870017047D0F87821D0F811
:107EF0007C319A4210B51FD0D0F88031C3B1D0F890
:107F00007811D0F87C21914214D0D0F87821D0F8A3
:107F100074419B5CD0F87021013AC0F87021D0F810
:107F200078210132B2FBF4F104FB1122C0F8782170
:107F3000184610BD0023FBE74FF0FF30F9E7FFFFC5
:107F400073B544F64E730D460646ADF804300A226A
:107F50004523C1698DF80630284609F02FFF0E49E8
:107F60000446284609F004FFF17D04440A2228460D
:107F700009F031FF337D02AA1344044413F9041CB1
:107F8000284609F0F9FE0A220444317E284609F009
:107F900022FF204402B070BDAF8E0100A0F110009E
:107FA000FFF7CEBF006808B5243007F019FF00F5D1
:107FB000800000F5F0600002C36B6FF38613C363AB
:107FC000C36B5B06FCD508BD30B52DED028B85B0CB
:107FD000044604A808EE101A002100F8011D1546F9
:107FE00007F0FCFDC3B2072B05D94FF0FF3005B0F9
:107FF000BDEC028B30BD9DF80F20002AF5D1CDE9F4
:108000000022DFED0F0AB8EE480A1146204607F0BD
:108010008BFE6DB14FF48031204607F0DFFF002862
:10802000E3D04FF48031204607F0DDFF0028DCD09C
:10803000204607F0D7FE204607F0FBFE0020D6E7DB
:10804000000048422DE9F84F90F814A090F817C0AE
:10805000AAF10104B4FA84F407466409BCF1000FE4
:1080600022D090F8A0E090F91590012606FA0EF6BD
:108070001FFA86F800F1BC054646002041FA00F3DD
:1080800003F0010389EA0303DBB203FA0EF226EAE6
:10809000020B013008EA020242EA0B42604584EA20
:1080A000030445F8042FE9D1BAF1000F03D007EB20
:1080B0008C0CCCF8C040FB6E07F1240459689A6818
:1080C000DB8907F1800006F087FB204607F0C8FE39
:1080D000204607F0DCFED7F88820137F002BFCD168
:1080E000204607F0A6FE0120BDE8F88F10B5044633
:1080F00090F8E50108F00AFF431C15D040B200F0EB
:108100001F01430901228A402033134941F82320EB
:10811000BFF34F8FBFF36F8F104BC03053F8202049
:108120006FF3104243F8202094F8E6318BB100221F
:10813000B4F8A0100A4804F0D9FA0022B4F8681183
:10814000074804F0D3FA074806F002FA054806F09B
:10815000E7F9012010BD00BF00E100E00060004031
:10816000B8380020B0130020D0F87821D0F87C3146
:108170009A420ED0D0F880314BB1D0F87811D0F8B7
:108180007C21914203D0D0F87821985C7047002080
:1081900070474FF0FF3070472DE9F84390462C4A66
:1081A000026000251E4634324FF47A730446C0E95B
:1081B000015302610F461022294614300DF074FD60
:1081C0004FF0FF3904F1240007F046FCC4F8B0502A
:1081D000C4E92995C4F8AC50C4F8B450C4F8B850F8
:1081E00004F1EC0007F038FCC4F87851C4F86C9145
:1081F000C4F87051C4F87461C4F87C51C4F880515B
:1082000056B130460CF052FDD4F88031C4F88001EC
:1082100013B118460CF03EFDB8F1130F05D90D4B04
:108220000D4A0E48C02107F0C1F9132F05D90C4B98
:10823000094A0A48C12107F0B9F9002384F8E4810A
:1082400084F8E57184F8E6312046BDE8F88300BF84
:10825000BC8E0100F88D01000C8F0100128E010010
:10826000958E01002DE9F04715461F4690F8E42150
:10827000D04B0E4633F8321090F8E521A0F8A0104C
:1082800033F83230A0F8683104461522CA4804F0A9
:108290002DFA94F8E50108F039FE431C3DD1022186
:1082A00094F8E50108F044FEC4F86C0144F21002B1
:1082B000B4F86811C04804F019FAB4F86831A3752D
:1082C00005F47063B3F5407F0CBF07230823E37503
:1082D00005F0F003302B05F00F050CBF022301233E
:1082E000012D6775E66123762FD0022D30D1012351
:1082F0002375E37D227D207E0133002A18BF0133E0
:1083000094F8E621034423622AB3D4F86C310F2B8E
:1083100040F231810020BDE8F08740B2A74B00F168
:10832000C00253F822106FF3104143F8221000F0FE
:108330001F0301229A4043099B0003F1604303F5A8
:108340006143C3F880211A60B0E702232375D0E7A8
:1083500000232375CDE7B4F8A0500121EFB2B94056
:1083600089B20F04C4F8BC709B006FF0030C9042FC
:1083700006D90CFB023727440132C7F8B810F6E7DC
:1083800004F12408002231464046FFF71DFE07464F
:108390000028BFD1404607F023FD072898BF884B2F
:1083A000218C98BF185C874BA4F86A104FEA1525FA
:1083B0004FEA45152B4404F1BC024FF00005A4F828
:1083C00068502266636694F85F3094F85E10C4F8D3
:1083D0009C404FF0020203F03F0362F3051362F387
:1083E000830301F01F0184F85F3041F0100365F34F
:1083F000830384F85E304FF00C0304F15C0684F8CC
:108400008E304FF0DF0388BF384684F88D30012767
:108410006D4BE66604F18C0A04F16C0904F18008E6
:108420006A4EC4F89070A4F8947084F88C70C4F804
:10843000983084F89600C4F870A0C4F87890C4F816
:108440007480E66707F054FE2A46514608F0EEFCB9
:1084500000283FF45FAF4946404606F075F9002812
:108460007FF458AFE16E404606F096F900287FF49D
:1084700051AF04F1EC093A46E169B4F86851484655
:10848000FFF7A2FD804600287FF444AF484607F07E
:10849000A7FC072898BF4A4B218C98BF185CA4F80A
:1084A00032114FEA15234FEA431303F180434FF093
:1084B000000503F10413A4F83051C4F8283194F8EE
:1084C000273184F854514FF0020104F5C27203F0D1
:1084D0003F0361F30513C4F82C2194F82621C4F856
:1084E000644165F3830384F8273102F00F0361F3DD
:1084F000830384F826314FF00103C4F85831A4F8FF
:108500005C314FF00C0304F5927784F856314FF04C
:10851000DF0388BF404684F85531C4F834712C4BD2
:10852000C4F8603104F5AA7904F59A7804F5A477C3
:1085300084F85E01C4F83891C4F84081C4F83C71F5
:10854000C4F8446107F0D4FD2A46494608F06EFCA1
:1085500000283FF4DFAE4146384606F0F5F8002823
:108560007FF4D8AED4F83411384606F015F9002857
:108570003FF4CBAECEE6174AD55C002D3FF4CAAE31
:108580001549164805F09EFF014600287FF4C2AE4B
:108590002A46124805F0CCFF00287FF4BBAE0F48F6
:1085A00005F0CEFF00287FF4B5AE012084F8E60187
:1085B000B1E600BF9C910100B83800200060004087
:1085C000048F010008000440A57F00000093010013
:1085D0009D860000F48E0100E18D0100B0130020A3
:1085E000F8B52D4D2B6883F0010303EB43030446DC
:1085F00000EB0313D0F8340103F5C27383604168C4
:108600008268C38904F5A47006F0E6F8D5F800C0C6
:10861000E07D0CEB4C0104EB0111D8B30022A77DE7
:10862000667D01F5C271964651F8043FFB4003F0A8
:10863000010373409340013243EA0E0382425FFA22
:1086400083FEF1D1D4F8801101B3D4F87C31D4F891
:108650007401D4F878610133B3FBF0F200FB1233FC
:10866000B34213D0D4F87031D4F87C210133C4F86C
:10867000703101F802E0D4F87C31D4F87411013380
:10868000B3FBF1F201FB1233C4F87C318CF001032F
:108690002B60F8BD8646D5E7B813002010B5044618
:1086A0000068EC3007F0C5FB2068BDE81040FFF71C
:1086B00097BF10B50446006808B10CF0EBFA2046ED
:1086C00010BDFFFF0C4B10B503F108023C3304460C
:1086D0000260036100F5C070FFF7EBFF04F1EC00EE
:1086E00007F028FC04F1B800FFF7E3FF04F12400D1
:1086F00007F020FC204610BDB48E010010B50446E2
:10870000FFF7E0FF20464FF4F4710CF0CDFA20465D
:1087100010BDFFFF4309012200F01F0002FA00F024
:108720002033044A42F82300BFF34F8FBFF36F8F0B
:10873000704700BF00E100E003681B78092B0BD8ED
:108740000A4A52F823303BB11A7F2AB10279012A32
:1087500003D1032283F82E207047022A01D101227F
:10876000F8E7032AF8D10222F4E700BF581C0020E2
:1087700003681B78022B0BD80A4A52F823303BB10E
:108780001A7F2AB10279012A03D1032283F82E200D
:108790007047022A01D10122F8E7032AF8D1022208
:1087A000F4E700BF4C1C0020036801211B6B184735
:1087B00010B403689C6B0123A4465DF8044B60472A
:1087C00007B5037F8DF8071063B1437FC3B190F8FD
:1087D0002C309BB1D0F83834FE2B07D9012380F818
:1087E0002D304360002003B05DF804FBC2189DF8F3
:1087F000071082F833120133C0F838340120F2E751
:10880000D0F82831002BF9D001220DF10701A43056
:108810009847F3E7C0F840147047C0F84414704715
:1088200090F83C34D0F83404C01A704790F83C34C7
:10883000D0F834148B4202463FBFC118013391F87F
:10884000320382F83C3428BF4FF0FF30704790F875
:108850003C34D0F8342493423ABFC01890F8320325
:108860004FF0FF30704790F82E30022B03D090F875
:108870002E30032BF7D1704738B5037F0446CBB1B8
:10888000437F4BB3D0F81C31A3B190F98B00FFF7B5
:1088900041FF94F98A00FFF73DFF94F98C00FFF740
:1088A00039FF94F98D00FFF735FFD4F81C3104F13E
:1088B0003C009847A369154D102235F8331000206D
:1088C00003F014FF6369102235F83310002003F021
:1088D0000DFF0023237738BDD0F83031002BE9D0CD
:1088E00090F9E500FFF716FF94F9E400FFF712FF97
:1088F00094F9E600FFF70EFF94F9E700FFF70AFF8F
:10890000D4F8303104F1A400D3E700BF9C910100FA
:10891000F8B5037F04460D46164693B1437F4BB12D
:108920008F18BD420BD0236815F8011B1B68204629
:108930009847F6E7D0F828310BB1A4309847304675
:10894000F8BD1E46FBE7FFFF38B5037F04460D4622
:1089500033B1437F23B1D0F81C310BB13C30984781
:10896000637FDBB1294BC4F880501A6A94F8243035
:108970005BB327490F23002284F833308D424FF038
:10898000010384F8312084F8343015D10E2384F8A3
:108990003030FF2384F8323084F82F20237F53B106
:1089A000D4F800313BB104F17C0104F13C0098475C
:1089B00008B10023237738BD022284F83020CC226E
:1089C00084F8322084F82F30E8E7124B1B68C2F39A
:1089D00002618B400E49C2F302328D4223FA02F348
:1089E0000D4AB3FBF2F303F1FF3208D00B4B9D426B
:1089F000D4D141F20F03238784F83720CEE741F624
:108A00001A320133228784F83730C7E700E001408B
:108A1000A0860100CC210020006CDC02801A060038
:108A200017B4D0F8243101914BB10169019A00F5D6
:108A30009A742144A43003B05DF8044B1847012018
:108A400003B05DF8044B70477FB54368019303683A
:108A50001A78022A46D81A783B4B53F82240002C49
:108A600040D0237F002B3DD0037A012B03D1032379
:108A700084F82E3036E0022B1DD1012384F82E30ED
:108A8000019E04F59A753246294604F232300DF003
:108A9000E7F80021C4F83464216184F83C14FF2213
:108AA00028460DF001F9D4F84034DBB1019804B048
:108AB000BDE870401847032B01D10223D8E7042BEF
:108AC00012D184F82E302369019A1344FE2B2DD83D
:108AD00001212046FFF7A4FF0290029B13B92369EE
:108AE0000133236104B070BD052B09D184F82E3009
:108AF000D4F84434002BF5D004B0BDE870401847DA
:108B0000062B18D1042384F82E302369019A1344CC
:108B1000FE2B0BD801992046FFF782FF0390039BA1
:108B2000002BDFD1019A23691344DAE700212046A4
:108B3000FFF776FFD6E7072B01D10523D6E7082BF1
:108B4000D0D1062394E700BF4C1C002070B580F8FC
:108B50002530234B836200259DF8103080F83D348A
:108B60004FF47A76DF23C0E90156C0E905121D4EA5
:108B70000660012205610577427780F8245080F86D
:108B80002C5080F82D50C0F80051C0F80451C0F8A6
:108B90000851C0F80C51C0F81051C0F81451C0F879
:108BA0001851C0F81C51C0F82051C0F82451C0F829
:108BB0002851C0F82C51C0F83051C0F83454C0F8D6
:108BC000385480F88A3080F88B3080F88C3080F808
:108BD0008D3080F8E43080F8E53080F8E63070BD04
:108BE000A0860100508F01002DE9FF414369002B51
:108BF000044603DA002004B0BDE8F0818269002A4F
:108C0000F8DB8B42F6DA8A42F4DAD9B202226846FD
:108C100002AE0BF0ADFF30460322217E0BF0A8FF21
:108C200000203DF8101000258B1109B336F81520EF
:108C3000F2B183EA9217FF061AD181EA0207FF0711
:108C400016D403F01F0312F00100236217D1022B88
:108C5000D0DCA3691D4D84F8240035F833101C4A7C
:108C60001C4803F043FD6369194A35F8331028E0C6
:108C70000135032DD9D101300328D2D1BAE7092B10
:108C8000B8DC12F4F04FA369134F104E11484FF0A7
:108C9000010584F824500CBF4FF080624FF0A062B1
:108CA0003A4311F4F04F36F833100CBF4FF08068A0
:108CB0004FF0A06803F01AFD636936F8331048EAF4
:108CC0000702044803F012FD012094E79C91010083
:108CD00010040107B83800201000010073B5012509
:108CE0000577044601F057FA01462046FFF77CFF5E
:108CF000237F18402077002800F09280637F002BAC
:108D000000F0898023686B499B6A2046984794F855
:108D10002430226A002B57D0674B43F82240674B20
:108D2000C4F80031664BC4F80431664BC4F808310E
:108D3000654BC4F80C31654BC4F81031644BC4F872
:108D40001431644BC4F81831634BC4F81C3104F17E
:108D50002F03C4F8A030614BC4F89830236A554AF9
:108D600084F87C300023C4E9202394F82520C4E94A
:108D700024339A4204F17C030CBF01220222C4F87E
:108D80009C300C2384F8882084F88930637F04F1B8
:108D90007C0604F1D80500960195002B7BD094F851
:108DA0002430002B72D007F0A3F96A46062107F0A1
:108DB0009BFB237F1840D4F800312077314604F123
:108DC0003C00984750BB2BE0454984F8355041F8AA
:108DD0002240444AC4F80021434AC4F80421434ACB
:108DE000C4F80821424AC4F80C21424AC4F81021B0
:108DF000414AC4F81421414AC4F81821404AC4F831
:108E00001C2104F13502C4F8A0203E4AC4F8982081
:108E100084F83630A2E794F824301BB1002323777E
:108E200002B070BD226A2E4984F8D82041F8224051
:108E3000204AC4F8DC20B4F8F820A4F8E02094F824
:108E400025203149C4F82011002A3049C4F82411E2
:108E50000CBF012202222E4984F8E22040F60C4287
:108E6000C4F82811A4F8E8202A492B4AC4F82C1188
:108E7000C4F8EC202949C4F8301104F1D80284F870
:108E8000E33084F8EA30C4E93C237FE707F030F9A7
:108E90006A4605218BE707F02BF907216A4607F0A0
:108EA00023FB237F18402077D4F82031294604F192
:108EB000A40086E7A0860100581C002045C00000E1
:108EC00055BF000069BE000079BD000099BD0000DB
:108ED000A1BD0000ADBD0000C5BD00003987000088
:108EE0004C1C00204DD2000065D0000099D000003D
:108EF000C9D2000025CF00002DCF000039CF0000DF
:108F000015D300007187000089C9000095C70000D3
:108F1000CDC7000001C80000498A00000DC800004C
:108F200010B5036804465B6A9847012363772046BF
:108F3000BDE81040FFF7D2BE38B5036804465B6A4F
:108F40000D46984700236377A4F8F8502046BDE803
:108F50003840FFF7C3BEFFF7EFBF2DE9F0471E46CD
:108F6000037F044692463BB3D0F8103163B300F15F
:108F70003C0990F8882048469847054668B9D4F8D7
:108F8000047157B19DF8243084F82E0083F001035A
:108F9000324651464846B847054609F00DFD804621
:108FA00009F00AFD089BA0EB0800984204D294F84F
:108FB0002E300BB9002DF3D094F82E30012B0CBFBE
:108FC00030460020BDE8F0870125E6E72DE9F047AF
:108FD0009A46037F089F04469146002B39D0D0F86B
:108FE000103123B300F13C0890F8882040469847A0
:108FF000054668B9D4F8086156B19DF8243084F864
:109000002E0083F00103524649464046B0470546CC
:1090100009F0D2FC064609F0CFFC801B874208D934
:1090200094F82E302BB9002DF5D004200FE0012547
:10903000EEE7002DF9D194F82D3063B994F82E3075
:109040005BB194F82E30032B14BF00200220BDE842
:10905000F0870620FBE70120F9E70520F7E737B5A1
:1090600090F8FC5090F838340191826A00922946B9
:1090700000F233220446FFF7A9FF002384F82C30C6
:1090800003B030BD037F4BB10023012280F82D30A7
:10909000C0F8FC1080F82C20C0F838347047FFF777
:1090A000F1BFFFF7EFBF2DE9F3411646027F9DF8B0
:1090B000205004460F469846002A31D0B5B10368C7
:1090C000DB6A9847032D28BF0325013DEDB2FF2D34
:1090D000236807D0E90028FA01F11B68C9B22046CD
:1090E0009847F2E71B6B0021204698479DF82430F3
:1090F000FF2E28BFFF26003318BF01230193A36A68
:10910000009304F23232F3B239462046FFF725FFCE
:109110000023C4F8340484F83C3402B0BDE8F08184
:109120001046FAE707B5019300230093FFF7BBFF52
:1091300003B05DF804FBFFFF13B500242346009441
:10914000122213210548FFF701FD009423461B223C
:109150001A210348FFF7FAFC02B010BDBC1300202F
:1091600004180020012070472DE9D04F9B4603686A
:109170001B6B92460446DDE90889984702460B4678
:10918000504659460CF0E8FA134302D00020BDE8DF
:10919000D08F236820461B6B984702460B464046FB
:1091A00049460CF0D9FA1343F0D123681AEB0806AC
:1091B0009B6C20464BEB09079847B94208BFB04269
:1091C0002CBF01200020E2E701682DE9F041C96BC6
:1091D00014461D460646884702460B462046294649
:1091E0000CF0BAFA134302D00020BDE8F081DDE9AB
:1091F0000623A71845EB0308336817F1FF32D96B34
:10920000304648F1FF33884702460B463846414610
:109210000CF0A2FA1343E7D1336830469B6C9847B1
:10922000414508BFB8422CBF01200020DDE72DE9F1
:10923000D04F9B4603685B6B92460446DDE9088984
:10924000984702460B46504659460CF085FA1343A0
:1092500002D00020BDE8D08F236820465B6B984782
:1092600002460B46404649460CF076FA1343F0D1CD
:1092700023681AEB08069B6C20464BEB09079847BE
:10928000B94208BFB0422CBF01200020E2E7002015
:109290007047002070474FF0FF30704703689B6BAA
:1092A00018477047704703681B68184703685B6876
:1092B000184710B40468A468A4465DF8044B6047DE
:1092C00090F8803010B5044653B9036A43B100F1F9
:1092D0006C013430984710B9012384F8803010BDF8
:1092E0000620FCE790F8803010B504463BB1036BD4
:1092F0002BB134309847002384F8803010BD06200D
:10930000FCE7D0E906017047D0E904017047FFFF90
:1093100000487047988F010010B5882104460BF073
:10932000C3FC204610BDFFFF1649016230B5164947
:10933000164C41621649174A81620025164902609F
:10934000C0E9024500224FF400540025C1621349D0
:1093500080F88020C0E9044501634FF48064FF2158
:10936000002580F86C200267C0E91D22DF22C0E9D9
:10937000064580F87C1080F87D2080F87E1080F80B
:109380007F2030BDF1E0000009E400000000104043
:1093900069E30000AC8F01007DE2000085DE000083
:1093A00010B50A4C2378BFF35B8FDB070CD4204643
:1093B0000BF05FFC40B10648FFF7B6FF20460BF00C
:1093C00064FC044809F093FA014810BD801C002099
:1093D000881C0020A392000083689A1806D20069B6
:1093E0000344934294BF002001207047002070473F
:1093F0002DE9F84F16461F46DDE90A2312F1FF3228
:1094000043F1FF3392197B4105468A46FFF7E4FF9B
:1094100098B332463B462846FFF7DEFF834660B3EB
:1094200049B395F88020D5F80880B2B92A68284653
:109430001268904704465146A8EB0A00DDE90A8904
:109440000023A1EB0A024B4508BF424509D20B1885
:1094500033441B7801F8013BF0E74FF0000B022486
:10946000E9E7BBF1000F03D02B6828465B689847FB
:109470002046BDE8F88F0224FAE71620F9E72DE927
:10948000F84F16461F46DDE90A2312F1FF3243F179
:10949000FF3392197B4104468B46FFF79DFF38B39B
:1094A00032463B462046FFF797FF054600B394F847
:1094B0008030CBB9236820461B6898478046D4F893
:1094C00024A0BAF1000F07D0A2680A9B3244594683
:1094D00004F13400D04780461DB12268204652680E
:1094E00090474046BDE8F88F00254FF00208E6E7B8
:1094F0001620F7E737B585698168C46A11446A4266
:10950000114054B10DF107032A463430A04728B961
:109510009DF8073013B9184600E0062003B030BDAF
:109520008168836A114482695242114013B1012259
:1095300034301847062070472DE9F84FDDE90A67F7
:1095400016F1FF3A47F1FF3B90461AEB02029946AB
:109550004BEB03030546FFF73FFFB0B342464B46D4
:109560002846FFF739FF80B395F880304BBB2B6856
:1095700028461B6898470446F0B9AC69EB69224657
:10958000404649460CF0E8F8A4EB020A42464B4636
:109590002846FFF7C5FFB6EB0A0642464B4628466B
:1095A00067F10007FFF7A6FFD5F818A0044618B921
:1095B000012E77F10003E9DA2B6828465B689847AB
:1095C00000E006242046BDE8F88F1620FBE7FFFFE9
:1095D00010B5094C2378BFF35B8FDB0709D4204615
:1095E0000BF047FB28B120460BF04FFB034809F076
:1095F0007EF9034810BD00BF101D00201596000025
:10960000141D002010B50446006808B10BF042FBA1
:10961000204610BD0148FFF7F5BF00BF141D002014
:10962000F0B585B00D46FFF7BBFE012600270368A5
:10963000CDE900672A461C6A0DF10F010023A047FF
:109640009DF80F0005B0F0BD704770477047704738
:10965000704790F82C20436B10B504462AB16C304B
:109660009847002384F82D3010BD3C30F8E7F8B55A
:10967000427C036804460E46CFB29B680D0A62B96D
:1096800039469847236860F307069B6829462046B9
:10969000984760F30F26B0B2F8BD29469847236873
:1096A00060F30F269B6839462046984760F307060B
:1096B000F1E7FFFF01790368034A0333012918BF6B
:1096C0000221D154704700BF290000207047FFFFDE
:1096D00070B590F82C3086B004468DF80F103BB36F
:1096E000836A1A4D0222EA5407230093866B0123F2
:1096F0000DF117020DF10F016C30B04709F056F96A
:109700000646A36AEB5C012B07D009F04FF9801BDA
:10971000B0F57A7F01D200BFF3E7A36AEB5C022BBE
:1097200010D1236820461B6B9847002006B070BDFF
:10973000436C9DF80F201A71DA78D209FCD01B799E
:109740008DF817309DF81700F0E700BF29000020C2
:10975000F7B5134604460846002900F0898094F8BE
:109760002C2022B3A26A434D0226AE540722009257
:10977000A66B0A4604F16C00B04709F017F90646DB
:10978000A36AEB5C012B07D009F010F9801BB0F540
:109790007A7F01D200BFF3E7A36AEB5C022B67D1AB
:1097A00023681B6B204603B0BDE8F040184703F068
:1097B000030C9B085AD0616C0D7862F38615202249
:1097C0000D70CA720A8A022565F30B220A820A7892
:1097D00042F040020A70CA789506FCD502684A60D9
:1097E000012B18D0CA789206FAD542684A6002273F
:1097F0006FF0030E0EFB070E3E46F51B9E420CD289
:10980000CA78D209FAD050F826204D684A604EF83E
:1098100026500136F1E71F46EAE79D4207D2CA7893
:10982000D209FAD04A6840F825200135F5E70B78CF
:109830006FF386130B704023CB720B8A072262F3FF
:109840000B230B820B7843F040030B70AD004319E0
:109850006044284483420BD0626C19781171D1782E
:10986000C909FCD0127903F8012BF3E71D46EDE797
:1098700003B0F0BD2900002010B5CC2104460BF048
:1098800013FA204610BDFFFF70B5134D0560C3618C
:10989000124D9DF8103045600126002580F82030DB
:1098A000DF23057246728572C5600574467485743F
:1098B000C0E90512C0E9095580F82C5080F82D50F8
:1098C000C0E90C55856380F8993080F89A3080F8AB
:1098D0009B3080F89C3070BD1890010040420F0012
:1098E0002DE9F04F8FB01E46B2F100089DF86430AC
:1098F000DDF860B0019304460ADB002E08DBBBF103
:10990000000F05DB884503DA8E4201DA8B4504DB64
:109910000023237063602372ADE00DF1200A04225E
:109920005FFA88F150460AAF0BF022F90CAD052220
:10993000F1B238460BF01CF906225FFA8BF128468B
:109940000BF016F90022CDE90222CDE90475009250
:109950009146CDF81CA0079B009933F811304FEACF
:10996000A31A03F001000AF01F0506904FF0000C47
:109970004FF0030E23B30498009930F81100F8B1AA
:10998000059830F81100D8B1049830F81C708AEAB4
:109990009710C00614D105986FF0010101FB0E006D
:1099A000C0888AEA9011C9060AD1069A12B3019AB0
:1099B000022A19D0019ABAB1CDE902702A46994615
:1099C000BEF1010ED6D10CF1010CBCF1030FCFD1C9
:1099D000009B0133032B0093BDD11546B9F1000F55
:1099E00004D0DDE902704B4607B130B90023237083
:1099F000656090E7019A012ADBE713F0010933D093
:109A0000092DF3DC17F4F04F274F0CBF4FF08062A5
:109A10004FF0A06213F4F04F0CBF4FF0806A4FF08C
:109A2000A06A42F4803210F4F04F37F838101F4823
:109A30000CBF4FF080694FF0A06902F057FE4AF466
:109A4000803237F83610194802F050FE49F480325F
:109A500037F83B10154802F049FE4FF0010984F831
:109A600000906560012356E7022D08DD84F8009020
:109A7000656084F8089020460FB0BDE8F08F0A4F6B
:109A80000B4A37F83810094802F030FE37F8361024
:109A9000074A064802F02AFE054A37F83B100348F9
:109AA00002F024FEDBE700BF9C910100B8380020E3
:109AB000000001060B79013BDBB2022B98BF094A7B
:109AC00010B59EBFD45C084AD25C4B7988BF002297
:109AD000B3FA83F388BF14465B0903704270847045
